{
  "transactions": [
    {
      "hash": "0xa2cb66acd60d9423cb83038e82670a46a18a5a8e76b9f2b3b9dda1343ba9c725",
      "transactionType": "CALL",
      "contractName": null,
      "contractAddress": "0x779877a7b0d9e8603169ddbd7836e478b4624789",
      "function": "transferAndCall(address,uint256,bytes)",
      "arguments": [
        "0x9DdfaCa8183c41ad55329BdeeD9F6A8d53168B1B",
        "3000000000000000000",
        "0x21f90f8dbda5e830b46d64ba7b71b443daf3efe818f994f6d81ba20888d4244b"
      ],
      "transaction": {
        "from": "0x7de7080ab6ffb3f1435378f3e7f15dfae92c6f3a",
        "to": "0x779877a7b0d9e8603169ddbd7836e478b4624789",
        "gas": "0x14cbb",
        "value": "0x0",
        "input": "0x4000aea00000000000000000000000009ddfaca8183c41ad55329bdeed9f6a8d53168b1b00000000000000000000000000000000000000000000000029a2241af62c00000000000000000000000000000000000000000000000000000000000000000060000000000000000000000000000000000000000000000000000000000000002021f90f8dbda5e830b46d64ba7b71b443daf3efe818f994f6d81ba20888d4244b",
        "nonce": "0x189",
        "chainId": "0xaa36a7"
      },
      "additionalContracts": [],
      "isFixedGasLimit": false
    }
  ],
  "receipts": [
    {
      "status": "0x1",
      "cumulativeGasUsed": "0x45c85c",
      "logs": [
        {
          "address": "0x779877a7b0d9e8603169ddbd7836e478b4624789",
          "topics": [
            "0xddf252ad1be2c89b69c2b068fc378daa952ba7f163c4a11628f55a4df523b3ef",
            "0x0000000000000000000000007de7080ab6ffb3f1435378f3e7f15dfae92c6f3a",
            "0x0000000000000000000000009ddfaca8183c41ad55329bdeed9f6a8d53168b1b"
          ],
          "data": "0x00000000000000000000000000000000000000000000000029a2241af62c0000",
          "blockHash": "0x8b27b6269a502b97a090724c62d49dc50bafee34f39ab69ede01023fee1f34b4",
          "blockNumber": "0x63f1c4",
          "transactionHash": "0xa2cb66acd60d9423cb83038e82670a46a18a5a8e76b9f2b3b9dda1343ba9c725",
          "transactionIndex": "0x21",
          "logIndex": "0x46",
          "removed": false
        },
        {
          "address": "0x779877a7b0d9e8603169ddbd7836e478b4624789",
          "topics": [
            "0xe19260aff97b920c7df27010903aeb9c8d2be5d310a2c67824cf3f15396e4c16",
            "0x0000000000000000000000007de7080ab6ffb3f1435378f3e7f15dfae92c6f3a",
            "0x0000000000000000000000009ddfaca8183c41ad55329bdeed9f6a8d53168b1b"
          ],
          "data": "0x00000000000000000000000000000000000000000000000029a2241af62c00000000000000000000000000000000000000000000000000000000000000000040000000000000000000000000000000000000000000000000000000000000002021f90f8dbda5e830b46d64ba7b71b443daf3efe818f994f6d81ba20888d4244b",
          "blockHash": "0x8b27b6269a502b97a090724c62d49dc50bafee34f39ab69ede01023fee1f34b4",
          "blockNumber": "0x63f1c4",
          "transactionHash": "0xa2cb66acd60d9423cb83038e82670a46a18a5a8e76b9f2b3b9dda1343ba9c725",
          "transactionIndex": "0x21",
          "logIndex": "0x47",
          "removed": false
        },
        {
          "address": "0x9ddfaca8183c41ad55329bdeed9f6a8d53168b1b",
          "topics": [
            "0x1ced9348ff549fceab2ac57cd3a9de38edaaab274b725ee82c23e8fc8c4eec7a",
            "0x21f90f8dbda5e830b46d64ba7b71b443daf3efe818f994f6d81ba20888d4244b"
          ],
          "data": "0x000000000000000000000000000000000000000000000000b175b7aed0657ddd000000000000000000000000000000000000000000000000db17dbc9c6917ddd",
          "blockHash": "0x8b27b6269a502b97a090724c62d49dc50bafee34f39ab69ede01023fee1f34b4",
          "blockNumber": "0x63f1c4",
          "transactionHash": "0xa2cb66acd60d9423cb83038e82670a46a18a5a8e76b9f2b3b9dda1343ba9c725",
          "transactionIndex": "0x21",
          "logIndex": "0x48",
          "removed": false
        }
      ],
      "logsBloom": "0x00000004000000000400000000000000000000000020000000000000020000000000000000000000000000000000100000000000000000000000000000000000000000000000000000000008000000000000000000000000000020000020000048000000040000000000000000000000000000000000000000000010000040000000000000000000000000010000800008000020000000000000000000000000000000000000000000000000010000000000000000000000000004000000000000000002000000000000000000000000000000000000000100000000000000000010000000000000800000000000000000000000002000000000000000000000",
      "type": "0x2",
      "transactionHash": "0xa2cb66acd60d9423cb83038e82670a46a18a5a8e76b9f2b3b9dda1343ba9c725",
      "transactionIndex": "0x21",
      "blockHash": "0x8b27b6269a502b97a090724c62d49dc50bafee34f39ab69ede01023fee1f34b4",
      "blockNumber": "0x63f1c4",
      "gasUsed": "0xf0e5",
      "effectiveGasPrice": "0x2bacdcc55",
      "from": "0x7de7080ab6ffb3f1435378f3e7f15dfae92c6f3a",
      "to": "0x779877a7b0d9e8603169ddbd7836e478b4624789",
      "contractAddress": null
    }
  ],
  "libraries": [],
  "pending": [],
  "returns": {},
  "timestamp": 1724335833,
  "chain": 11155111,
  "commit": "04549cb"
}